:0C03AA000112000114FE0110000111FFFF
:0402BF007FF47E0149
:1002C300E4FDFCC3ED9FEE6480F8EC648098501568
:1002D300E4FAFB0BBB00010ABA0BF8BBB8F50DBD82
:0502E30000010C80DEAB
:0102E80022F3
:10009E00E4F50A1203B712038112008F7F281203B0
:1000AE00367F1E7E001202C37FA41202947F1E7E34
:1000BE00001202C3AF137E00EFF4606EC37480941F
:1000CE0080400FD3EF9409748094805005851312ED
:1000DE008030E51324F56014146015146017146055
:1000EE001914601B2405701A151080160510801245
:1000FE00751101800D7511028008751103800312B0
:10010E00039CAF10EF3395E0FED3EF9407EE6480BF
:10011E0094804003E4F510AF10EF3395E0C3648094
:10012E00948050037510077513FFAF11EF3395E0F0
:10013E00FEEFF44E6026E513F47021E51124FE6007
:10014E000D146010240270E21200001202BF1200A1
:10015E00001202BF1200001202BF80CEAF11EF33A9
:10016E0095E0FEEFF44E6008E513F460037511FFA1
:10017E00E4F50A7514FEAF10EF3395E0FEC3E50A01
:10018E009FEE6480F8748098500DE51425E0F51408
:10019E00431401050A80DF7FA4120294AD147F88F8
:1001AE0012021FC20085120DAD107F011203107FC7
:0901BE00327E001202C30200C2ED
:0C008F0075E340E4F5A775E720D2AF222E
:1003810075B167E4FFFE0FBF00010EBE0BF8BFB8E9
:0A039100F5E5B1548060FA75B20C76
:01039B00223F
:0B03B700C2AF75FFDE75FFADD2AF22B4
:0E039C007FA4120294E4F5107514FEF51222EF
:03009B000201C798
:1001C700C0E0C0F0C083C082C0D075D000C000C0FE
:1001D70001C002C003C004C005C006C007C2AF12F9
:1001E700025D8F13C374809480400DD3EF9409741C
:1001F700809480500385131253AD7FD2AFD007D0C0
:1002070006D005D004D003D002D001D000D0D0D082
:0802170082D083D0F0D0E03268
:0303C20080C89060
:0C035C007E08EF3392B5EF25E0FFD2B42D
:0903680085150F150FE50F70FA61
:02037100C2B414
:0903730085150F150FE50F70FA56
:04037C001EEE70DE23
:01038000225A
:0602E9007E08D2B5D2B47C
:0902EF008515091509E50970FAED
:0A02F800EF25E0FF30B5010FC2B49E
:090302008515091509E50970FAD9
:04030B001EEE70DE94
:01030F0022CB
:07029400ADA853A8FAC2B3A4
:0E029B00E51575F006A4F50B150BE50B70FAD2
:0502A90012035CD2B35A
:0E02AE00E51575F006A4F50B150BE50B70FABF
:0202BC008DA80B
:0102BE00221D
:07021F00ACA853A8FAC2B31A
:0E022600E51575F006A4F50E150EE50E70FA3E
:0302340012035C56
:0E023700E51575F006A4F50E150EE50E70FA2D
:07024500AF0512035CD2B308
:0E024C00E51575F006A4F50E150EE50E70FA18
:02025A008CA86E
:01025C00227F
:10031000EFD394027480948040027F02EF9003C276
:1003200093FF530507ED4207E50D547FFD300003B1
:0603300043058002021FDC
:02025D00C2B32A
:0E025F00E51575F006A4F5081508E50870FA17
:05026D007F1512035C87
:0E027200E51575F006A4F5081508E50870FA04
:050280001202E9D2B3F7
:0E028500E51575F006A4F5081508E50870FAF1
:010293002248
:10033600D2B3C2B4D2B5D2B78F15E4FBEBC39408DF
:1003460074809480500FAD03D200750D087F0112A2
:0503560003100B80E71D
:01035B00227F
:03000000020003F8
:0C000300787FE4F6D8FD75812002004AE9
:10000F0002009EE493A3F8E493A34003F68001F269
:10001F0008DFF48029E493A3F85407240CC8C333F2
:10002F00C4540F4420C8834004F456800146F6DFC1
:10003F00E4800B01020408102040809003AAE47EA4
:10004F00019360BCA3FF543F30E509541FFEE493B6
:10005F00A360010ECF54C025E060A840B8E493A37D
:10006F00FAE493A3F8E493A3C8C582C8CAC583CAA8
:10007F00F0A3C8C582C8CAC583CADFE9DEE780BE60
:0103B6000046
:00000001FF
