:0A053100021501000417000000008D
:1004CB00EF1FAA0670011E4A6015E4FCFDC3ED94F4
:0F04DB00B8EC6480948B50E80DBD00010C80EEEE
:0104EA0022EF
:1001AF00750E00750F1075FFDE75FFAD1204EB12A3
:1001BF0000747FE07E0112050712052112053C7FB6
:1001CF00231204807FA4120408D2EFD2AFD3E50D1F
:1001DF009400E50C64809490500EE50F250DF50DFD
:1001EF00E50E350CF50C8005E4F50CF50D850CD3FB
:1001FF00850DD27F647E001204CBE47F7E7E09FDE5
:10020F00FCAB1EAA1DA91CA81B12007EE4FB7A10D2
:10021F00F9F812034F8F0B8E0A8D098C08D200E468
:10022F007BE87A03F9F812034F8F12E4FDFF1204F3
:10023F005AC200E47BE87A03F9F8AF0BAE0AAD09B6
:10024F00AC0812034FAC00AD01AE02AF03E47B6408
:10025F00FAF9F812034F8F127D01E4FF12045AC20C
:10026F0000E47B64FAF9F8AF0BAE0AAD09AC0812E3
:10027F00034FAC00AD01AE02AF03E47B0AFAF9F80D
:10028F0012034F8F127D02E4FF12045AC200E47B67
:10029F000AFAF9F8AF0BAE0AAD09AC0812034FAF6B
:1002AF00038F127D03E4FF12045A7F327E00120483
:0402BF00CB0201DC91
:1004EB0075B167E4FFFE0FBF00010EE4B507F7EE31
:0B04FB00B401F3E5B130E7FB75B288F7
:0105060022D2
:07007400E4F5E275E3402210
:1005210075E84475D107E4F5BB75BC4043E7022289
:10050700759102C3E49FFFE49EF5938F9274FFF504
:0A05170095F59453E7FE439104228A
:09053C0075D480E4F5D2F5D32258
:03007B000200037D
:10000300C0E0C0D075D000C000C004C005C006C0A9
:0100130007E5
:10001400C2EDAFBEAEBFE4FCFDE51A2FF51AE5193B
:100024003EF519ED3518F518EC3517F517E51615E5
:100034001670021515E51645157026751501F51689
:10004400AF1AAE19AD18AC1778081200CD8F1E8EFA
:100054001D8D1C8C1B751A007519007518007517F9
:01006400009B
:0F006500D007D006D005D004D000D0D0D0E032E4
:0305450080C890DB
:0C04A6007E08EF3392B5EF25E0FFD2B4E2
:0904B2008522141514E51470FAFA
:0204BB00C2B4C9
:0904BD008522141514E51470FAEF
:0404C6001EEE70DED8
:0104CA00220F
:060433007E08D2B5D2B430
:0904390085221F151FE51F70FA52
:0A044200EF25E0FF30B5010FC2B452
:09044C0085221F151FE51F70FA3F
:040455001EEE70DE49
:010459002280
:07040800ADA853A8FAC2B32E
:0E040F00E52275F006A4F5101510E51070FA40
:05041D001204A6D2B399
:0E042200E52275F006A4F5101510E51070FA2D
:020430008DA895
:0104320022A7
:07039300ACA853A8FAC2B3A5
:0E039A00E52275F006A4F5131513E51370FAAD
:0303A8001204A696
:0E03AB00E52275F006A4F5131513E51370FA9C
:0703B900AF051204A6D2B348
:0E03C000E52275F006A4F5131513E51370FA87
:0203CE008CA8F9
:0103D000220A
:10045A00EFD394027480948040027F02EF900545A6
:10046A0093FF530507ED4207E512547FFD30000361
:06047A004305800203931C
:0203D100C2B3B5
:0E03D300E52275F006A4F5211521E52170FA4A
:0503E1007F151204A6C7
:0E03E600E52275F006A4F5211521E52170FA37
:0503F400120433D2B336
:0E03F900E52275F006A4F5211521E52170FA24
:0104070022D2
:10048000D2B3C2B4D2B5D2B78F22E4FBEBC3940887
:1004900074809480500FAD03D2007512087F011252
:0504A000045A0B80E787
:0104A5002234
:030000000202C336
:0C02C300787FE4F6D8FD75812202030A62
:10007E00E88FF0A4CC8BF0A42CFCE98EF0A42CFC21
:10008E008AF0EDA42CFCEA8EF0A4CDA8F08BF0A49F
:10009E002DCC3825F0FDE98FF0A42CCD35F0FCEBFE
:1000AE008EF0A4FEA9F0EB8FF0A4CFC5F02ECD39C3
:0F00BE00FEE43CFCEAA42DCE35F0FDE43CFC2230
:10034F00C2D5E830E70FB2D5E4C39BFBE49AFAE4D9
:10035F0099F9E498F8EC30E717B2D512038512013A
:10036F001DE4C39BFBE49AFAE499F9E498F880033F
:10037F0012011D30D50DE4C39FFFE49EFEE49DFDE9
:04038F00E49CFC22CC
:1000CD00E86010ECA2E713FCED13FDEE13FEEF1349
:0400DD00FFD8F02236
:1002CF000201AFE493A3F8E493A34003F68001F295
:1002DF0008DFF48029E493A3F85407240CC8C33330
:1002EF00C4540F4420C8834004F456800146F6DFFF
:1002FF00E4800B0102040810204080900531E47E59
:10030F00019360BCA3FF543F30E509541FFEE493F3
:10031F00A360010ECF54C025E060A840B8E493A3BA
:10032F00FAE493A3F8E493A3C8C582C8CAC583CAE5
:10033F00F0A3C8C582C8CAC583CADFE9DEE780BE9D
:01053B0000BF
:1000E10075F008758200EF2FFFEE33FECD33CDCCD6
:1000F10033CCC58233C5829BED9AEC99E582984059
:100101000CF582EE9BFEED9AFDEC99FC0FD5F0D635
:10011100E4CEFBE4CDFAE4CCF9A88222B800C1B95F
:100121000059BA002DEC8BF084CFCECDFCE5F0CB9D
:10013100F97818EF2FFFEE33FEED33FDEC33FCEBD6
:1001410033FB10D703994004EB99FB0FD8E5E4F991
:10015100FA227818EF2FFFEE33FEED33FDEC33FC7E
:10016100C933C910D7059BE99A4007EC9BFCE99A72
:10017100F90FD8E0E4C9FAE4CCFB2275F010EF2FB7
:10018100FFEE33FEED33FDCC33CCC833C810D707B7
:100191009BEC9AE899400AED9BFDEC9AFCE899F8F2
:0E01A1000FD5F0DAE4CDFBE4CCFAE4C8F92285
:00000001FF
