:0A053300021501000417000000008B
:1004CA00EF1FAA0670011E4A6015E4FCFDC3ED94F5
:0F04DA00B8EC6480948B50E80DBD00010C80EEEF
:0104E90022F0
:1001FD0075FFDE75FFAD1204EA12053E7FE07E014C
:10020D001205061205207F2312047F7FA412040716
:10021D00D2EFD2AFC2AF851E0B851D0A851C098595
:10022D001B08D2AFE47B64FAF9F8AF0BAE0AAD0947
:10023D00AC0812034E8E0C8F0D7C007D6412007E77
:10024D00C3E50B9FF50FE50A9EF50EC200AE0CAF90
:10025D000D1200907E007F0ACFCDCFCECCCE1200F6
:10026D00908F12E4FDFF120459D200AE0CAF0D7C3D
:10027D00007D0A1200908D127D01E4FF120459C217
:10028D0000AE0EAF0F7C007D0A1200908F127D0222
:10029D00E4FF120459C200AE0EAF0F7C007D0A12AE
:1002AD0000908D127D03E4FF1204597F327E0012FF
:0502BD0004CA02022149
:1004EA0075B167E4FFFE0FBF00010EE4B507F7EE32
:0B04FA00B401F3E5B130E7FB75B288F8
:0105050022D3
:0A053E00E4F5E275E34043A4012256
:1005200075E80543D10743BB0F75BC4043BC01438D
:03053000E70222BD
:10050600759102C3E49FFFE49EF5938F9274FFF505
:0A05160095F59453E7FE439104228B
:03007B000200037D
:10000300C0E0C0D075D000C000C004C005C006C0A9
:0100130007E5
:10001400C2EDAFBEAEBFE4FCFDE51A2FF51AE5193B
:100024003EF519ED3518F518EC3517F517E51615E5
:100034001670021515E51645157026751501F51689
:10004400AF1AAE19AD18AC1778081200C68F1E8E01
:100054001D8D1C8C1B751A007519007518007517F9
:01006400009B
:0F006500D007D006D005D004D000D0D0D0E032E4
:0300740080C890B1
:0C04A5007E08EF3392B5EF25E0FFD2B4E3
:0904B1008522141514E51470FAFB
:0204BA00C2B4CA
:0904BC008522141514E51470FAF0
:0404C5001EEE70DED9
:0104C9002210
:060432007E08D2B5D2B431
:0904380085221F151FE51F70FA53
:0A044100EF25E0FF30B5010FC2B453
:09044B0085221F151FE51F70FA40
:040454001EEE70DE4A
:010458002281
:07040700ADA853A8FAC2B32F
:0E040E00E52275F006A4F5101510E51070FA41
:05041C001204A5D2B39B
:0E042100E52275F006A4F5101510E51070FA2E
:02042F008DA896
:0104310022A8
:07039200ACA853A8FAC2B3A6
:0E039900E52275F006A4F5131513E51370FAAE
:0303A7001204A598
:0E03AA00E52275F006A4F5131513E51370FA9D
:0703B800AF051204A5D2B34A
:0E03BF00E52275F006A4F5131513E51370FA88
:0203CD008CA8FA
:0103CF00220B
:10045900EFD394027480948040027F02EF9000747D
:1004690093FF530507ED4207E512547FFD30000362
:060479004305800203921E
:0203D000C2B3B6
:0E03D200E52275F006A4F5211521E52170FA4B
:0503E0007F151204A5C9
:0E03E500E52275F006A4F5211521E52170FA38
:0503F300120432D2B338
:0E03F800E52275F006A4F5211521E52170FA25
:0104060022D3
:10047F00D2B3C2B4D2B5D2B78F22E4FBEBC3940888
:10048F0074809480500FAD03D2007512087F011253
:05049F0004590B80E789
:0104A4002235
:030000000202C237
:0C02C200787FE4F6D8FD75812202030964
:10007E00EF8DF0A4A8F0CF8CF0A428CE8DF0A42E96
:02008E00FE2250
:10009000C2D5EC30E709B2D5E4C39DFDE49CFCEE8B
:1000A00030E715B2D5E4C39FFFE49EFE1200DAC329
:1000B000E49DFDE49CFC80031200DA30D507C3E424
:0600C0009FFFE49EFE22FA
:10034E00C2D5E830E70FB2D5E4C39BFBE49AFAE4DA
:10035E0099F9E498F8EC30E717B2D512038412013C
:10036E006BE4C39BFBE49AFAE499F9E498F88003F2
:10037E0012016B30D50DE4C39FFFE49EFEE49DFD9C
:04038E00E49CFC22CD
:1000C600E86010ECA2E713FCED13FDEE13FEEF1350
:0400D600FFD8F0223D
:1002CE000201FDE493A3F8E493A34003F68001F248
:1002DE0008DFF48029E493A3F85407240CC8C33331
:1002EE00C4540F4420C8834004F456800146F6DF00
:1002FE00E4800B0102040810204080900533E47E58
:10030E00019360BCA3FF543F30E509541FFEE493F4
:10031E00A360010ECF54C025E060A840B8E493A3BB
:10032E00FAE493A3F8E493A3C8C582C8CAC583CAE6
:10033E00F0A3C8C582C8CAC583CADFE9DEE780BE9E
:01053D0000BD
:1000DA00BC000BBE0029EF8DF084FFADF022E4CC0A
:1000EA00F875F008EF2FFFEE33FEEC33FCEE9DECD3
:1000FA00984005FCEE9DFE0FD5F0E9E4CEFD22ED19
:10010A00F8F5F0EE8420D21CFEADF075F008EF2F62
:10011A00FFED33FD4007985006D5F0F222C398FD53
:05012A000FD5F0EA22F0
:10012F0075F008758200EF2FFFEE33FECD33CDCC87
:10013F0033CCC58233C5829BED9AEC99E58298400A
:10014F000CF582EE9BFEED9AFDEC99FC0FD5F0D6E7
:10015F00E4CEFBE4CDFAE4CCF9A88222B800C1B911
:10016F000059BA002DEC8BF084CFCECDFCE5F0CB4F
:10017F00F97818EF2FFFEE33FEED33FDEC33FCEB88
:10018F0033FB10D703994004EB99FB0FD8E5E4F943
:10019F00FA227818EF2FFFEE33FEED33FDEC33FC30
:1001AF00C933C910D7059BE99A4007EC9BFCE99A24
:1001BF00F90FD8E0E4C9FAE4CCFB2275F010EF2F69
:1001CF00FFEE33FEED33FDCC33CCC833C810D70769
:1001DF009BEC9AE899400AED9BFDEC9AFCE899F8A4
:0E01EF000FD5F0DAE4CDFBE4CCFAE4C8F92237
:00000001FF
