:10014800E4FFFE75B1670FBF00010EE4B507F7EED7
:0B015800B401F3E5B130E7FB75B2889D
:010163002279
:0701A00075FFDE75FFAD22C3
:0701A70075E34075B50C2261
:0700DC007585FE7F1E7E000A
:1000E300E4FDFCC3ED9FEE6480F8EC64809850154A
:1000F300E4FAFB0BBB00010ABA0BF8BBB8F50DBD64
:0501030000010C80DE8C
:0101080022D4
:04003D008E088F0991
:10004100E4F50AF50BC3E50B9509E50A950850227D
:100051001200DC900000E58525E0F5851200DFA3A4
:10006100E5826409458370EE050BE50B70D7050A3F
:0200710080D33A
:01007300226A
:040003008E0C8F0DC3
:10000700E4F50EF50FC3E50F950DE50E950C50259C
:100017001200DC900000E58525E0F5854385011297
:1000270000DFA3E5826409458370EB050FE50F70D8
:05003700D4050E80D08D
:01003C0022A1
:10016400900000E4F5857F64FE1200E37585FF12BC
:0B01740000E3A3E5826404458370E80B
:01017F00225D
:100074007585FE7F647E001200E37585FD1200E342
:100084007585FB1200E37585F71200E37585EF12A1
:1000940000E37585DF1200E37585BF1200E3758503
:0400A4007F0200E3F4
:1000A80075857F7F647E001200E37585BF1200E3CB
:1000B8007585DF1200E37585EF1200E37585F71289
:1000C80000E37585FB1200E37585FD1200E3758575
:0400D800FE0200E341
:10012B009000007585AA7F647E001200E3758555EB
:0C013B001200E3A3E5826404458370E732
:010147002295
:09019700E4F5A4F5E175E204228F
:0B018C00C2AFD2A8C288D2B8D2AF2206
:1001090075FFDE75FFAD1201A7120148120197753F
:1001190085FF1201641200741200A812012B758563
:02012900FF22B3
:030000000201807A
:0C018000787FE4F6D8FD75810F020109BC
:00000001FF
