:0F008A000112FE011332010800011100011400E0
:10035500E4FFFE75B1770FBF00010EBE0BF8BFB805
:0A036500F5E5B1548860FA75B1089F
:01036F00226B
:0B037000C2AF75FFDE75FFADD2AF22FB
:0A037B0075E340E4F5A775E72022C2
:10000300538EEF758910758DF1758B8B43A88843DB
:06001300B80843884022FA
:10033700EF1FAA0670011E4A6013E4FCFDC3ED948B
:0D034700BCEC940250EA0DBD00010C80F0EA
:010354002286
:10012A00E4F51712037012035512037B7FA412021F
:10013A00747F231202EC7F327E001203377FA412EF
:10014A000274120003120203751707AF17EF3395F3
:10015A00E0C36480948040EDC20074092FF8E6F58C
:10016A001AAD17E4FF1202C67F057E001203371587
:03017A001780D813
:10020300E51475F00A84F509E51475F00A8485F0A0
:100213000A750B0AE51175F00A84F50CE51175F002
:100223000A8485F00D750E0AE50875F00A84F50F4A
:0A023300E50875F00A8485F010223A
:03001B0002017D62
:10017D00C0E0C0D0758DF1758B8B1513E513703301
:10018D007513320508D3E508943B748094804023A1
:10019D000511750800D3E511943B748094804013CC
:1001AD007511000514D3E5149417748094804003E1
:0801BD00751400D0D0D0E0322F
:03009B0002001E42
:10001E00C0E0C0F0C083C082C0D075D000C000C0A8
:10002E0001C002C003C004C005C006C00712023DD5
:10003E008F1253AD7EE51224F56014146015146012
:10004E001614601714601824057016051480121506
:10005E0014800E0511800A15118006050880021500
:10006E0008D007D006D005D004D003D002D001D0DE
:0C007E0000D0D0D082D083D0F0D0E0328F
:0303850080C8909D
:0C0312007E08EF3392B5EF25E0FFD2B477
:09031E00851D1C151CE51C70FA7C
:02032700C2B45E
:09032900851D1C151CE51C70FA71
:040332001EEE70DE6D
:0103360022A4
:06029F007E08D2B5D2B4C6
:0902A500851D161516E51670FA08
:0A02AE00EF25E0FF30B5010FC2B4E8
:0902B800851D161516E51670FAF5
:0402C1001EEE70DEDF
:0102C5002216
:07027400ADA853A8FAC2B3C4
:0E027B00E51D75F006A4F5181518E51870FAC3
:05028900120312D2B3C4
:0E028E00E51D75F006A4F5181518E51870FAB0
:02029C008DA82B
:01029E00223D
:0701C500ACA853A8FAC2B375
:0E01CC00E51D75F006A4F51B151BE51B70FA6A
:0301DA00120312FB
:0E01DD00E51D75F006A4F51B151BE51B70FA59
:0701EB00AF05120312D2B3AD
:0E01F200E51D75F006A4F51B151BE51B70FA44
:020200008CA8C8
:0102020022D9
:1002C600EFD394027480948040027F02EF900385FE
:1002D60093FF530507ED4207E51A547FFD300003EF
:0602E6004305800201C582
:02023D00C2B34A
:0E023F00E51D75F006A4F5151515E51570FA08
:05024D007F15120312F1
:0E025200E51D75F006A4F5151515E51570FAF5
:0502600012029FD2B361
:0E026500E51D75F006A4F5151515E51570FAE2
:010273002268
:1002EC00D2B3C2B4D2B5D2B78F1DE4FBEBC3940822
:1002FC0074809480500FAD03D200751A087F0112E0
:05030C0002C60B80E7B2
:0103110022C9
:0300000002009E5D
:0C009E00787FE4F6D8FD7581200200E5B3
:1000AA0002012AE493A3F8E493A34003F68001F241
:1000BA0008DFF48029E493A3F85407240CC8C33357
:1000CA00C4540F4420C8834004F456800146F6DF26
:1000DA00E4800B010204081020408090008AE47E2C
:1000EA00019360BCA3FF543F30E509541FFEE4931B
:1000FA00A360010ECF54C025E060A840B8E493A3E2
:10010A00FAE493A3F8E493A3C8C582C8CAC583CA0C
:10011A00F0A3C8C582C8CAC583CADFE9DEE780BEC4
:010099000066
:00000001FF
