:100B2D00633D25640A00613E620A00613C620A0071
:080B3D00733D252E32660A000B
:100A0D00E4F522F523F524752503F526752706F55E
:100A1D0028F529F52DF52CF52BF52AE5252527F5B6
:100A2D0029E5243526F528D2997BFF7A0B792DF50A
:100A3D0031852932120600C299852390D299D3E5CA
:100A4D00259527E5266480F8E5246480987BFF4092
:100A5D00067A0B793380047A0B7938120600C29925
:100A6D00E4F528F529C3E523940BE52264809480F1
:100A7D005016E5232529F529E5223528F5280523E6
:100A8D00E52370E1052280DDD2997BFF7A0B792D6C
:100A9D00852831852932120600C299852390AC2410
:100AAD00AD25EC12010E7BC37AF579487840120022
:100ABD0003C004C005C006C007AC24AD25EC12016F
:100ACD000ED003D002D001D0001200038F2D8E2C3A
:100ADD008D2B8C2AD2997BFF7A0B793D8F348E33F7
:100AED008D328C31120600C299AF2DAE2CAD2BACD0
:090AFD002A1201478F90020A2819
:10000300EC4D6011E8497017ED33EC3304600DE4F7
:10001300FCFFFEFD22E933E8330470F80201B3125A
:10002300017E58046009E4CC24815006285009025B
:1000330001BD2840030201BAC0E0EB4A7044B98015
:1000430006D0E0FB0201A9EF4E701CBD8008EBFF58
:10005300EAFEE9FD80EBE98DF0A4FEE5F00200EC99
:10006300E9CDF9EAFEEBFFEF89F0A4FCE5F0CE89D8
:10007300F0A42EFFE435F0CD89F0A42DFEE435F095
:100083008067EF4E7005BD80D780C3EF8BF0A4ACC3
:10009300F0EE8BF0A42CFCE435F0F8EF8AF0A42CFE
:1000A300E5F038FCE433CB8DF0A42CFCE5F03BF811
:1000B300EE8AF0A42CFCE5F038F8E433CF89F0A401
:1000C3002CFCE5F038CF3400CE89F0A42FFFE5F007
:1000D3003EFEE433C98DF0A42EFEE5F039CD8AF05F
:1000E300A42FFFE5F03EFEE43DFD33D0E0FB5007D7
:1000F3000BBB000F0201BDEC2CFCEF33FFEE33FE14
:06010300ED33FD02019541
:1001090075F020800E75F010800575F0087D007E71
:10011900007F003392D530D50312055AEC334010D5
:10012900EF33FFEE33FEED33FDEC33FCD5F0ED227A
:0E013900E5F0247EA2D513CC92E7CDCEFF22B6
:10014700EDD2E7CD33EC3392D524814006E4FFFEB0
:10015700FDFC22FCE4CFCECDCC24E0501174FF800F
:10016700EDC3CC13CCCD13CDCE13CECF13CF0470AC
:07017700F030D5DE02055A4D
:10059E00E5452431F8E6054522782E3007027831FC
:1005AE00E475F0011205680205022000EB7F2ED2E1
:1005BE00008018EF540F2490D43440D4FF30040B35
:1005CE00EF24BFB41A0050032461FFE54660021504
:1005DE00460549E5497002054830070D782EE47549
:1005EE00F001120568EF020548020B067403D207EC
:1005FE008003E4C207F5458B2E8A2F8930E4F54639
:10060E00F548F549E54660077F201205D980F57556
:10061E0047FFC201C200C202C203C205C206C2081F
:10062E001205A7FF700D3007057F001205EAAF49CE
:10063E00AE4822B4255FC2D5C2041205A7FF24D04E
:10064E00B40A00501A75F00A784630D50508B6FF80
:10065E000106C6A426F620D5047002D20380D92442
:10066E00CFB41A00EF5004C2E5D2040208D7D2016B
:10067E0080C6D20080C0D20280BCD2D580BAD2054C
:10068E0080B47F201205D92002077401B5460040C0
:10069E00F112059EFF1205D9020612D208D206806B
:1006AE009512059EFB12059EFA12059EF94A4B7095
:1006BE000679CE7A097BFF20022EE546602A7E005F
:1006CE008E8275830012051B60060EEE654770F074
:1006DE00C2D5EBC0E0EAC0E0E9C0E0EE120937D0C7
:1006EE00E0F9D0E0FAD0E0FB120502FF60AAEBC001
:1006FE00E0EAC0E0E9C0E01205D9D0E02401F9D06B
:10070E00E03400FAD0E0FBE5470460DCD547D98041
:10071E0087D20280A212091A60F7E547700104120F
:10072E0001C8A947600DE547600914F5471209C1D4
:10073E00EF60F3EA30E702F404C3995077EAF42548
:10074E00470430E701E404F547800D12091A60C131
:10075E00EA054725471201C8EA7844F630E701E476
:10076E00254704D5470420050114120937E4C0E0DB
:10077E001209C17844E6601320E70714F61205C18A
:10078E00802204F6D0E014C0E07F001205C1E547D8
:10079E0060071205B81547800B3005031205B8D057
:1007AE00E0020612D0E00480C512091A60A0E547E7
:1007BE00041201C87844EAF6E547200502600104F8
:0507CE002404120937AC
:1007D30074FF04C0E01209C11205C1E547200502F8
:1007E30060031205B8D0E0B547E87F451205CB7822
:1007F30044E67F2B30E7047F2DF404C0E01205D9D3
:10080300D0E075F00A84C0F01205C2D0E01205C230
:10081300020612791080027908C206C2088008D243
:10082300D5790A8004790AC2D5E547047002F547F1
:10083300E4FAFDFEFF12059EFC7B0820011312055E
:100843009EFD7B1030000A12059EFE12059EFF7B63
:1008530020EC3382D592D55013C3E43000069FFFBA
:10086300E49EFEE42001039DFDE49CFCE4CBF8C27E
:1008730001EC700CCFCECDCCE824F8F870F38017E0
:10088300C3EF33FFEE33FEED33FDEC33FCEB33FB11
:10089300994002FB0FD8E9EB300105F8D0E0C448DA
:1008A300B201C0E00AEC4D4E4F78207B0070C2EAE3
:1008B300B5470040BCC0E0120939D0F0D0E02001B8
:1008C30004C4C0E0C4B201C0F01205C2D0F0D5F038
:1008D300EB02061212057806AF5308165806804C31
:1008E300067C42081A4F0822440822490695430809
:1008F300285507594607B74507234709EE5006848D
:100903002D06882E06AB2B068C2306A92009D72A91
:10091300064448000006A3E547B4FF0375470612E3
:10092300059EFC12059EFD12059EFE12059EFF7894
:100933003D0201F7790AA2D5200314300509B91045
:10094300020404B9080104A2D520060250010420C0
:1009530002689202B546005034C0E07F203003198C
:100963007F30A20272067205500F120990C202C2B2
:1009730006C205C2087F30800F300503E9C0E012CC
:1009830005D9300503D0E0F9D0E0B546CC300517E2
:100993007F30B9100C1205D97F583004077F788057
:1009A30003B908031205D93002057F2D0205D97F4B
:1009B300202008F87F2B2006F322920280CF7F00AD
:1009C300B407005005243DF8E6FF22286E756C6CD1
:1009D3002900D20112059E3001F8C201784630D5B4
:1009E3000108F60206442D5043495812059E24037C
:1009F300B405004001E49009E9931205CA743A1260
:0A0A030005CAD20375460402081666
:10017E00E9D2E7C933E833F892D5EDD2E7CD33ECC7
:07018E0033FC5002B2D52240
:10019500EC30E7100FBF000C0EBE00080DBD0004CB
:1001A5000BEB6014A2D5EB13FCED92E7FD2274FF77
:1001B500FCFDFEFF22E480F8A2D574FF13FC7D80D0
:0301C500E480EFE4
:1001C800F920E72824F950037907E4F42402FB18FE
:1001D800DBFDE624FB5014E9600DE4F618E604F6AE
:0F01E800B40A08E4F6D9F57401F60A22C2D5224A
:1001F700ED33EC3392D5FA602AB4FF33EDC2E77BD7
:10020700FF60067A02791CE4227A02792520D50458
:100217007A027920224E614E002B494E46002D4925
:100227004E4600E47A08F608DAFC7B00740722E8F9
:10023700C0E0ECC0E0EDC0E0EEC0E0EFC0E0EA7582
:10024700F010A4CAABF075F04DA42BFBE435F0FC1D
:10025700EA2410FAEB34C5FBEC34D9FCEDC2E7FF16
:1002670075F056A4F42411C5F0F434C58FF0A42A10
:10027700E5F03BE43CF620E7141204C2D0E0FFD0DF
:10028700E0FED0E0FDD0E0FC1203F58014F4041288
:1002970004C2D0E0FFD0E0FED0E0FDD0E0FC1200C9
:1002A70003D0E0F8E6FAEDD2E7CD33EC332482FB56
:1002B700E4C3CF33CFCE33CECD33CD33DBF37B07A0
:1002C70075F00A846004F6081B0AE5F0F6088FF05B
:1002D700740AA4FFACF08EF0740AA42CFEACF050A4
:1002E700010C8DF0740AA42CFDE435F0F608DBDE72
:0302F70074072267
:1002FA000201B3E86480F8E933E83360110460F07E
:10030A00ED33EC337009E8FCE9FDEAFEEBFF220469
:10031A0060DED3EB9FEA9EE99DE8C2E78CF0C2F764
:10032A0095F0400CE8CCF8E9CDF9EACEFAEBCFFB30
:10033A0012017E85D0F05804700320D5B3E804700A
:10034A00075002B2D50201BD92D5EC0460F7E4CCA5
:10035A00C0E0C398F8603B94186008400DD0E0FBF9
:10036A00020195E4FBFAC9FC8028E830E406E4C9F6
:10037A00FBE4CAFCE830E305E4C9CACBFCE854074D
:10038A006010F8C3E913F9EA13FAEB13FBEC13FC58
:10039A00D8F130F52FC3E49CFCEF9BFFEE9AFEEDFB
:1003AA0099FDD0E0FBEF4E4D4C701222DB030201A7
:1003BA00BAEC2CFCEF33FFEE33FEED33FDED30E704
:1003CA00EB020195EF2BFFEE3AFEED39FDD0E0FB93
:1003DA0050130BBB00030201BDED13FDEE13FEEF3C
:0803EA0013FFEC13FC02019566
:1003F2000201BDEC5D046005E8590470030201B31B
:1004020012017E580460F6EC4860F2EC7004FDFEC6
:10041200FF22C860DB2481C85009C39860025006DD
:100422000201BA9850CAF582E9294B4A7005AB829B
:100432000201A975F0007C1A7880C3EF9BEE9AED59
:1004420099400DC3EF9BFFEE9AFEED99FDE842F055
:10045200DC23ACF0D0E0FFD0E0FED0E0FDAB8220A8
:10046200E7101BEB60BAEC2CFCEF33FFEE33FEED32
:1004720033FD020195E803F830E705C0F075F0009E
:10048200EF2FFFEE33FEED33FD40B830E7C280AA16
:100492003F8000004120000042C80000447A000072
:1004A200461C400047C35000497424004B189680F4
:1004B2004CBEBC205A0E1BCA6753C21C749DC5AEEB
:1004C200FB60065407601C23231204F0EB543860CF
:1004D200091204DC1204EB120003ECF8EDF9EEFA57
:1004E200EFCB22EB1204EB80F1543803241C90046E
:1004F20092FE93FC0EEE93FD0EEE930ECE93FF2230
:03000000020B45AB
:0C0B4500787FE4F6D8FD758149020A0DA6
:10050200BB010689828A83E0225002E722BBFE02F7
:09051200E32289828A83E493222A
:10051B00BB010CE58229F582E5833AF583E0225095
:10052B0006E92582F8E622BBFE06E92582F8E222DF
:0D053B00E58229F582E5833AF583E49322F9
:10054800BB010689828A83F0225002F722BBFE0192
:02055800F3228C
:0E055A00C3E49FFFE49EFEE49DFDE49CFC22B2
:10056800FAE6FB0808E6F925F0F618E6CA3AF62294
:10057800D083D082F8E4937012740193700DA3A312
:1005880093F8740193F5828883E473740293686026
:06059800EFA3A3A380DF26
:100B0600EFB40A07740D120B11740A309811A899E4
:100B1600B8130CC2983098FDA899C298B811F6304F
:070B260099FDC299F5992227
:00000001FF
